:100000000C9488040C94A5040C94A5040C94A504E9
:100010000C94A5040C94A5040C94A5040C94A504BC
:100020000C94A5040C94A5040C94A5040C94A00FA6
:100030000C94A5040C94A5040C94A5040C94A5049C
:100040000C94A5040C94A5040C94A5040C94A5048C
:100050000C94A5043C2F666F6F7465723E3C2F7341
:10006000656374696F6E3E3C2F626F64793E3C2F0E
:1000700068746D6C3E00436F7079726967687420B4
:1000800026636F70793B203230313420656D4261D8
:100090006E6B2E20416C6C207269676874732072DD
:1000A000657365727665642E003C2F6469763E3C0C
:1000B0002F6469763E3C2F73656374696F6E3E3CB6
:1000C0002F73656374696F6E3E3C666F6F74657203
:1000D0003E003C64697620636C6173733D636C65BC
:1000E00061723E3C2F6469763E003C612068726517
:1000F000663D2F3F636F6E74726F6C3D3126666193
:100100006E3D313E3C696D6720636C6173733D7376
:100110007769746368207372633D687474703A2FF2
:100120002F3139322E3136382E35332E332F612F81
:10013000692F732D662E706E673E3C2F613E003C2A
:10014000696D6720636C6173733D2266616E222066
:100150007372633D687474703A2F2F3139322E31C7
:1001600036382E35332E332F612F692F66616E2E70
:10017000706E67202F3E003C6120687265663D2FDF
:100180003F636F6E74726F6C3D312666616E3D30F9
:100190003E3C696D6720636C6173733D737769746E
:1001A0006368207372633D687474703A2F2F31391D
:1001B000322E3136382E35332E332F612F692F737F
:1001C0002D6E2E706E673E3C2F613E003C696D6760
:1001D00020636C6173733D2266616E20726F74617F
:1001E00074696E6722207372633D687474703A2F6D
:1001F0002F3139322E3136382E35332E332F612FB1
:10020000692F66616E2E706E67202F3E003C2F6452
:1002100069763E3C64697620636C6173733D634923
:1002200074656D3E003C64697620636C6173733D58
:10023000636C6561723E3C2F6469763E003C6120D0
:10024000687265663D2F3F636F6E74726F6C3D31EF
:100250002662756C62323D313E3C696D6720636C8D
:100260006173733D737769746368207372633D686B
:100270007474703A2F2F3139322E3136382E35338F
:100280002E332F612F692F732D662E706E673E3CC3
:100290002F613E003C696D6720636C6173733D6242
:1002A000756C62207372633D687474703A2F2F31DD
:1002B00039322E3136382E35332E332F612F692FB8
:1002C000622D662E706E67202F3E003C61206872A2
:1002D00065663D2F3F636F6E74726F6C3D312662B1
:1002E000756C62323D303E3C696D6720636C6173B2
:1002F000733D737769746368207372633D687474C7
:10030000703A2F2F3139322E3136382E35332E3385
:100310002F612F692F732D6E2E706E673E3C2F61FB
:100320003E003C696D6720636C6173733D62756C60
:1003300062207372633D687474703A2F2F313932C2
:100340002E3136382E35332E332F612F692F622D03
:100350006E2E706E67202F3E003C2F6469763E3C07
:1003600064697620636C6173733D634974656D3EA7
:10037000003C64697620636C6173733D636C6561F6
:10038000723E3C2F6469763E003C6120687265666F
:100390003D2F3F636F6E74726F6C3D312662756CDA
:1003A00062313D313E3C696D6720636C6173733D22
:1003B000737769746368207372633D687474703A0C
:1003C0002F2F3139322E3136382E35332E332F61DF
:1003D0002F692F732D662E706E673E3C2F613E0095
:1003E0003C696D6720636C6173733D62756C62205C
:1003F0007372633D687474703A2F2F3139322E3125
:1004000036382E35332E332F612F692F622D662E0D
:10041000706E67202F3E003C6120687265663D2F3C
:100420003F636F6E74726F6C3D312662756C623122
:100430003D303E3C696D6720636C6173733D73773B
:1004400069746368207372633D687474703A2F2F07
:100450003139322E3136382E35332E332F612F6914
:100460002F732D6E2E706E673E3C2F613E003C69EF
:100470006D6720636C6173733D62756C622073728B
:10048000633D687474703A2F2F3139322E3136380B
:100490002E35332E332F612F692F622D6E2E706E05
:1004A00067202F3E003C64697620636C6173733D66
:1004B000636F6E74726F6C3E3C64697620636C612E
:1004C00073733D634974656D3E003C736563746985
:1004D0006F6E2069643D757365722D726567206368
:1004E0006C6173733D2273706C6173682D636F6E02
:1004F00074656E74207265676973746572223E005C
:100500003C64697620636C6173733D636C656172F2
:100510003E3C2F6469763E3C2F6865616465723E9F
:10052000003C2F756C3E3C2F6E61763E003C6C6942
:100530003E3C6120687265663D687474703A2F2F86
:100540003139322E3136382E35332E332F3E61631A
:10055000636F756E743C2F613E3C2F6C693E003CAE
:100560006C693E3C6120687265663D687474703ADF
:100570002F2F3139322E3136382E35332E332F3E50
:10058000686F6D653C2F613E3C2F6C693E003C6E90
:1005900061763E3C756C3E003C64697620636C611C
:1005A00073733D227461672D6C696E65223E3C73E6
:1005B00070616E3E456D626564646564205365726A
:1005C0007665722062617365642054616E73616345
:1005D00074696F6E2053797374656D3C2F7370610D
:1005E0006E3E3C2F6469763E003C64697620636C05
:1005F0006173733D6C6F676F3E3C61206872656626
:100600003D687474703A2F2F3139322E3136382EBE
:1006100035332E332F203E3C2F613E3C2F646976CC
:100620003E003C6865616465723E003C73656374BE
:10063000696F6E20636C6173733D22686F6D652214
:100640003E003C73656374696F6E2069643D6C6144
:10065000796F75743E003C2F686561643E3C626F43
:1006600064793E003C6C696E6B2072656C3D7374FE
:10067000796C65736865657420747970653D74651F
:1006800078742F63737320687265663D6874747044
:100690003A2F2F3139322E3136382E35332E332F33
:1006A000612F632F732E637373202F3E003C746998
:1006B000746C653E436F6E74726F6C20526F6F6D19
:1006C000207C7C20656D42616E6B3C2F7469746C7C
:1006D000653E003C7469746C653E436F6E74726F66
:1006E0006C20526F6F6D207C7C20656D42616E6B5B
:1006F0003C2F7469746C653E003C68746D6C3E3CC4
:10070000686561643E003C21444F43545950452084
:1007100068746D6C3E00485454502F312E31203295
:100720003030204F4B0D0A4163636573732D436F67
:100730006E74726F6C2D416C6C6F772D4F726967A0
:10074000696E3A202A0D0A436F6E74656E742D54DB
:100750007970653A20746578742F68746D6C0D0A31
:10076000436F6E6E656374696F6E3A206B6565707A
:100770002D616C6976650D0A0D0A007375636365FA
:10078000737300485454502F312E312032303020B2
:100790004F4B0D0A4163636573732D436F6E747223
:1007A0006F6C2D416C6C6F772D4F726967696E3A73
:1007B000202A0D0A436F6E74656E742D547970652E
:1007C0003A20746578742F68746D6C0D0A436F6EEF
:1007D0006E656374696F6E3A206B6565702D616C30
:1007E0006976650D0A0D0A00485454502F312E3099
:1007F00020323030204F4B0D0A436F6E74656E749B
:100800002D547970653A20746578742F68746D6C16
:100810000D0A0D0A00436F6E6E656374696F6E3A60
:10082000206B6565702D616C6976650D0A0D0A0097
:100830004B6565702D416C6976653A203330300D1B
:100840000A004163636570743A20746578742F6898
:10085000746D6C0D0A00557365722D4167656E7479
:100860003A204156522065746865726E65740D0AAF
:1008700000486F73743A2031302E312E312E3736C6
:100880000D0A0020485454502F312E300D0A0047D5
:100890004554202F6176726E65742F736176652ED4
:1008A0007068703F7077643D736563726574267419
:1008B000656D703D0066616E0062756C623200624B
:1008C000756C623100636F6E74726F6C0063686583
:1008D000636B00616D6D6F756E7400726563656941
:1008E0007665720062616C5F747266007365634363
:1008F0006F6465006D6F624E756D007265675F7342
:10090000656E645F6D7367004552524F520D0A0069
:1009100011241FBECFE5D8E0DEBFCDBF10E0A0E6BA
:10092000B0E0E8E4F1E202C005900D92A03BB1070F
:10093000D9F710E0A0EBB0E001C01D92A13DB107D6
:10094000E1F70E9461070C94A2100C940000C49877
:10095000962F9F71982B9FB9779BFECF1FB8779BDF
:10096000FECF67FF03C01FB8779BFECFC49A8FB13D
:100970000895C4986F71682B6FB9779BFECF4FB9FC
:10098000779BFECFC49A0895482F282F30E0207619
:1009900030708091B00090E028173907D9F0C498E2
:1009A0008FEB8FB9779BFECF83E08FB9779BFECF1C
:1009B000C49AC4988FE98FB9779BFECF85E03595AF
:1009C00027958A95E1F72FB9779BFECFC49A407699
:1009D0004093B00008951F93182F0E94C40480E034
:1009E000612F0E94A7041F9108950F931F93182F42
:1009F000062F0E94C404C4981F7110641FB9779B0E
:100A0000FECF0FB9779BFECFC49A1F910F91089527
:100A10000F931F93682F84ED0E94F50482ED61E02F
:100A20000E94F5048AEE0E94EB0480FDFBCF82ED6C
:100A300061E00E94F50488ED0E94EB04082F10E0AD
:100A400089ED0E94EB04282F30E0202B312BC901C7
:100A50001F910F91089582E70E94EB0408950F9370
:100A60001F93CF93DF938C01EB0182E064E20E943D
:100A7000F50483E06AE10E94F504CE018C5D682FE5
:100A800086E00E94F5049E012C5D354E87E0632FC1
:100A90000E94F504C4988AE78FB9779BFECF1FB8F0
:100AA000779BFECFC49AC4988AE78FB9779BFECF15
:100AB00008C0F80180818FB9779BFECF21970F5F27
:100AC0001F4F2097B1F7C49AC4988FE98FB9779BCD
:100AD000FECF88E08FB9779BFECFC49A8CE10E944D
:100AE000EB0481FF0AC0C4988FEB8FB9779BFECFD0
:100AF00088E08FB9779BFECFC49ADF91CF911F9189
:100B00000F910895CF92DF92EF92FF920F931F9370
:100B1000CF93DF936C017B0189E30E94EB04882370
:100B200019F420E030E05FC080E06091B1000E94E5
:100B3000F50481E06091B2000E94F5048AE360E070
:100B40000E94A7048093B1008AE360E00E94A7049A
:100B5000082F8093B2008AE360E00E94A704C82FA8
:100B60008AE360E00E94A704D82F24978AE360E01C
:100B70000E94A704182F8AE360E00E94A704B7012F
:100B8000615070406C177D0708F4EB0117FD03C03E
:100B9000C0E0D0E014C09E01C4988AE38FB9779B6F
:100BA000FECF09C01FB8779BFECF8FB1F6018193AE
:100BB0006F012150304021153105A1F7C49A8CE016
:100BC0006091B1000E94F5048DE0602F0E94F50451
:100BD000C4988EE98FB9779BFECF80E48FB9779B5D
:100BE000FECFC49A9E01C901DF91CF911F910F9151
:100BF000FF90EF90DF90CF9008950F931F93982F61
:100C0000162F072F84ED692F0E94F50486ED612FC2
:100C10000E94F50487ED602F0E94F50404C08FE068
:100C200090E00E94820F8AEE0E94EB0480FDF7CFD5
:100C30001F910F910895CF93DF93EC018B9A8A98BF
:100C4000929A93988AE090E00E94720F939A88ECAF
:100C500090E00E94720F87B3806B87BBC49A88B301
:100C60008F7588BB80E58DB9709AC4988FEF8FB966
:100C7000779BFECF8FEF8FB9779BFECFC49A82E32D
:100C800090E00E94720F1092B2001092B10088E0C2
:100C900060E00E94F50489E060E00E94F5048CE0C9
:100CA00060E00E94F5048DE060E00E94F5048AE0B7
:100CB00063E20E94F5048BE06AE10E94F50484E09F
:100CC00064E20E94F50485E06AE10E94F50486E092
:100CD00060E00E94F50487E060E20E94F50480EC89
:100CE0006DE00E94F50482EC62E30E94F50483EC5F
:100CF00060E40E94F50489EC6FE30E94F50486EC41
:100D000062E10E94F50487EC6CE00E94F5048AEC35
:100D10006EEE0E94F5048BEC65E00E94F50484EE13
:100D200068810E94F50485EE69810E94F50482EED7
:100D30006A810E94F50483EE6B810E94F50480EEC7
:100D40006C810E94F50481EE6D810E94F50480E1C2
:100D500060E071E00E94FD0584E162E774E00E94BA
:100D6000FD0588E360EB0E94F50488E26FE30E94D2
:100D7000F50489E260E30E94F50480E369EF0E94D4
:100D8000F50481E367EF0E94F50484EC62E10E94C0
:100D9000F5048FE10E94C404C4988BE98FB9779B56
:100DA000FECF80EC8FB9779BFECFC49AC4988FE9B1
:100DB0008FB9779BFECF84E08FB9779BFECFC49A23
:100DC00084E190E00E94720FDF91CF9108959C0121
:100DD000E199FECF3FBB2EBBE09A8DB30895CF9231
:100DE000DF92EF92FF920F931F93DF93CF93CDB7D4
:100DF000DEB7C65ED5400FB6F894DEBF0FBECDBFDE
:100E00008091BA0085FD4DC0CE010B966CED75E06A
:100E10000E948205892B09F444C0DE011596FE016B
:100E2000719686E001900D928150E1F79BE0C92E0A
:100E3000D12CCC0EDD1EC60161E070E00E94DC0BFF
:100E4000882339F0C601BE016B5F7F4F0E94FB0B08
:100E500028C08DA19EA1AFA1B8A589839A83AB8339
:100E6000BC83C6010E94720D8823D9F085E0E82E6C
:100E7000F12CEC0EFD1EC601B7018E010F5F1F4F56
:100E8000A8010E94530E882361F4C601B701A8018E
:100E90000E942A0F882329F4C601B701A8010E94E5
:100EA000DF09CA51DA4F0FB6F894DEBF0FBECDBFCF
:100EB000CF91DF911F910F91FF90EF90DF90CF9036
:100EC00008950E94920F8DE490E00E94C50F0E9449
:100ED000461081E48093BB0085E48093BC0096E3D8
:100EE0009093BD0084E38093BE009093BF0087E39E
:100EF0008093C000A39AA49AA59A85EC90E060E044
:100F000070E044E050E027EE36E00E944F1081ECA4
:100F100090E064E070E044E050E027EE36E00E94AC
:100F20004F108BEB90E00E941B0688E391E36EE28A
:100F300072E70E9425100E94EF06FDCFDC0140E021
:100F400080E021E05AE09D91392F30533A3040F44F
:100F5000249F402D1124430F259F202D11240DC0C7
:100F60009E3221F0992311F080E00895FB01E80FF3
:100F7000F11D40838F5F40E021E0843021F7089528
:100F8000982F80538A3068F08153863010F4865F42
:100F90000895892F8154863010F080E00895892FBC
:100FA00087530895CF93DF93FC01EC0137C08B3258
:100FB00011F480E231C0853279F5DF01119691811B
:100FC000FD013196392F30533A3070F0892F815618
:100FD000863010F4375208C0892F8154863010F0C3
:100FE00030E002C0392F375311962C91922F905335
:100FF0009A3070F0822F8156863010F4975208C0D4
:10100000822F8154863010F090E002C0922F9753C7
:10101000832F8295807F892B8993319680818823C5
:1010200031F61882DF91CF910895CF93DF93EC01D1
:1010300066E177E040E050E00E94B30CAC01CE01E5
:1010400066E077E00E94B30CAC01CE0169EF76E078
:101050000E94B30CAC01CE0163ED76E00E94B30CAC
:10106000AC01CE016DEA76E00E94B30CAC01CE017A
:1010700064E676E00E94B30CAC01CE0166E576E052
:101080000E94B30CAC01CE0162E476E00E94B30C86
:10109000AC01CE016BE276E00E94B30CAC01CE0154
:1010A00062E276E00E94B30CAC01CE0169EE75E01D
:1010B0000E94B30CAC01CE0168E975E00E94B30C4C
:1010C000AC01CE016EE875E00E94B30CAC01CE011C
:1010D0006FE575E00E94B30CAC01CE016DE275E0E6
:1010E0000E94B30CAC01CE0161E275E00E94B30C2A
:1010F000AC01CE0160E075E00E94B30CAC01CE0102
:101100006AEC74E00E94B30CAC01CE0165EA74E0B5
:101110000E94B30CAC018091B3009091B400813077
:10112000910551F4CE016EE674E00E94B30CAC015F
:10113000CE0167E174E00BC0892B61F4CE0160EE53
:1011400073E00E94B30CAC01CE0169E873E00E9429
:10115000B30CAC01CE0161E773E00E94B30CAC01AB
:10116000CE0169E573E00E94B30CAC018091B5003B
:101170009091B6008130910551F4CE0162E273E0A6
:101180000E94B30CAC01CE016BEC72E00BC0892B5A
:1011900061F4CE0164E972E00E94B30CAC01CE01AF
:1011A0006DE372E00E94B30CAC01CE0165E272E027
:1011B0000E94B30CAC01CE016DE072E00E94B30C52
:1011C000AC018091B7009091B8008130910551F445
:1011D000CE016CEC71E00E94B30CAC01CE0167E76C
:1011E00071E00BC0892B61F4CE016FE371E00E94C6
:1011F000B30CAC01CE016AEE70E00E94B30CAC01FE
:10120000CE0162ED70E00E94B30CAC01CE0169EA40
:1012100070E00E94B30CAC01CE0166E770E00E9462
:10122000B30CAC01CE0164E570E00E94B30CDF9119
:10123000CF9108950F931F938C0163E877E040E00E
:1012400050E00E94B30CAC01C8016BE777E00E944C
:10125000B30C1F910F91089568EE77E040E050E0E5
:101260000E94B30C08950F931F93DF93CF93CDB7D4
:10127000DEB7C054D0400FB6F894DEBF0FBECDBF6E
:101280008C011B826FE878E040E050E00E94B30CD4
:10129000AC01C801BE016F5F7F4F0E94C60CAC015C
:1012A000C80163E878E00E94B30CAC01C80161E7B3
:1012B00078E00E94B30CAC01C80166E578E00E94BA
:1012C000B30CAC01C80162E478E00E94B30CAC013D
:1012D000C80160E378E00E94B30CAC01C80165E18D
:1012E00078E00E94B30CC05CDF4F0FB6F894DEBF0D
:1012F0000FBECDBFCF91DF911F910F910895CF9277
:10130000DF92EF92FF920F931F93CF93DF93EC0145
:101310008B016A0179010E94AC0C282F30E02E5D10
:101320003F4FFE01E20FF31F05C081918F3329F07B
:101330002F5F3F4F20173107C0F320173107A9F166
:10134000DE01A20FB31FF60180E015C044919C910D
:101350009D3339F4882329F0442319F42F5F3F4F3C
:101360000FC0941719F0F60180E002C031968F5F2C
:101370002F5F3F4F11962017310740F38823B1F0BC
:10138000DE01A20FB31F80E09C91963219F01196F6
:10139000903229F4E80EF11CF701108207C0F70122
:1013A000E80FF11D90838F5FEFCF80E0DF91CF9149
:1013B0001F910F91FF90EF90DF90CF9008952F92A3
:1013C0003F924F925F926F927F928F929F92AF92D5
:1013D000BF92CF92DF92EF920F931F93DF93CF9341
:1013E000CDB7DEB7C454D1400FB6F894DEBF0FBE00
:1013F000CDBF2C01CF5BDE4F79836883C154D140D0
:10140000CD5BDE4F59834883C354D140FC0122A1F8
:1014100063A18789863009F073C184A1882309F00C
:101420006FC185A1803509F06BC1922F80E0262E17
:101430003324282A392A87A581FF1DC000D0EDB7A3
:10144000FEB752834183C201B10140E550E022E181
:1014500001E0EE24F1E0CF2ED12CAA24BB24CF5BF7
:10146000DE4F88809980C154D1400E94D80C809171
:10147000BA00806441C184FF43C1C2010E94930C41
:101480003C01009721F5F20187A580FF39C100D00A
:10149000CD5BDE4F88819981C354D140EDB7FEB753
:1014A00092838183C201B10140E550E020E100E078
:1014B000EE24E1E0CE2ED12CAA24BB24CF5BDE4F5C
:1014C00088809980C154D1400E94D80C17C1C201B4
:1014D000B3014BEF58E06E010894C11CD11C96017A
:1014E0000E947F09882329F18981813309F0C8C0CE
:1014F000C201B30144EF58E09E012F5B3F4F0E94B1
:101500007F09882309F44DC0C201B3014CEE58E0B5
:101510009E012F573F4F0E947F09882309F441C045
:10152000CE018F5B9F4FBE016F577F4F0E942510EA
:1015300038C0C201B30144EE58E096010E947F0911
:10154000882311F18981813309F09AC0C201B30166
:101550004BED58E09E012F533F4F0E947F09882397
:1015600001F18E010F5F1E4FC201B30143ED58E040
:1015700098010E947F098823A1F0CE018F539F4FCD
:10158000B8010E9400100DC0C201B3014DEC58E03B
:1015900096010E947F09882341F08981813309F0F7
:1015A0006FC0C2010E941A096AC0C201B30145ECB2
:1015B00058E096010E947F09882309F459C0898167
:1015C000813309F05DC0C201B3014FEB58E09E01C9
:1015D0002F5F3F4F0E947F09882381F089818133EB
:1015E00041F481E090E09093B4008093B300AB9A13
:1015F00005C01092B4001092B300AB98C201B301C1
:1016000049EB58E09E012F5F3F4F0E947F098823DE
:1016100081F08981813341F481E090E09093B600BC
:101620008093B500AC9A05C01092B6001092B50038
:10163000AC98C201B30145EB58E09E012F5F3F4FCC
:101640000E947F09882381F08981813341F481E000
:1016500090E09093B8008093B700AD9A05C01092C7
:10166000B8001092B700AD98C2010E94150807C0DB
:10167000C20168EE77E040E050E00E94B30C3C010C
:1016800000D0CD5BDE4F88819981C354D140EDB746
:10169000FEB792838183C201B10140E550E020E1B1
:1016A00000E0EE2431E0C32ED12CAA24BB24CF5B72
:1016B000DE4F88809980C154D1400E94D80CCD5B08
:1016C000DE4F88819981C354D140EDB7FEB7928334
:1016D0008183C201B10140E550E029E1CC24DD2441
:1016E0005301CF5BDE4F88809980C154D1400E9466
:1016F000D80C8091BA008F7B8093BA000F900F9026
:10170000CC5BDE4F0FB6F894DEBF0FBECDBFCF91DE
:10171000DF911F910F91EF90DF90CF90BF90AF902E
:101720009F908F907F906F905F904F903F902F9001
:101730000895CF93DF93DC011E961C921E9781E0E3
:101740001F968C931F9788E050968C9350975196D4
:101750001C92519786E052968C93529784E0539650
:101760008C935397ED0120E030E0FB01E20FF31F73
:10177000808188A3F901E554FF4F80818E8B2F5F14
:101780003F4F21962630310581F75C9620E030E00E
:10179000FA01E20FF31F80811A968C931A97F901D0
:1017A000EB53FF4F80818D932F5F3F4F24303105E6
:1017B00079F7DF91CF910895FC0184858830C9F4D1
:1017C00085858630B1F48489871799F485898617D1
:1017D00081F4DF019696E5ECF0E09C91808198170A
:1017E00041F41196319680E0E93CF807B1F781E0C9
:1017F000089580E00895EF92FF920F931F938C015C
:101800007B0166E078E0A7010E94D60DF801148AFA
:1018100082E0858BA801445E5F4FC801B7010E943A
:10182000990BC8016AE270E00E942F051F910F9189
:10183000FF90EF900895CF92DF92EF92FF920F9377
:101840001F93DF93CF9300D000D000D0CDB7DEB789
:101850008C016B018FEF89838A838B838C838D83CB
:101860008E83C80166E078E07E010894E11CF11CDB
:10187000A7010E94D60D19821A821B821C821D822A
:101880001E82F801148A81E0858BC801B701A60188
:101890000E94990BC8016AE270E00E942F0526960B
:1018A0000FB6F894DEBF0FBECDBFCF91DF911F9171
:1018B0000F91FF90EF90DF90CF900895FF920F93DC
:1018C0001F93CF93DF93EC01062FF72EBA010E94EE
:1018D0001B0C10E08AE090E00E94720FCE016CEDCC
:1018E00075E00E948205892BA1F0CE0162E070E0D4
:1018F0000E94DC0B882369F0802F9F2D9C01D90169
:10190000FE01369686E001900D928150E1F781E06C
:1019100004C01F5F1A30F1F680E0DF91CF911F9174
:101920000F91FF900895FC01908980E0218930E0BB
:10193000282B392B2451304086A582958F7090E05A
:10194000880F991F880F991F281B390B37FF02C07A
:1019500020E030E0C9010895FC0186A582958F70D2
:10196000880F880F08954A5C5F4FDC01A40FB51FF4
:101970004653504003C08D934F5F5F4FFB016F5F35
:101980007F4F84918823B9F7CA010895FB014A5C0F
:101990005F4FDC01A40FB51F4653504004C08D9328
:1019A00031964F5F5F4F80818823C9F7CA01089540
:1019B0002F923F924F925F926F927F928F929F925F
:1019C000AF92BF92CF92DF92EF92FF920F931F934D
:1019D000DF93CF930F92CDB7DEB73C01262E472E73
:1019E0004983352E522EF02E8501A40160E078E067
:1019F0000E94D60DC114D10489F0F301B99634E0E8
:101A00008081A601480F511DCA012481448320838F
:101A1000C92EDD2431503197332391F7FF20B9F0DF
:101A2000F30116A217A28091600080A711A68E5F15
:101A30008093600082E086AB84E087AB85E080AF76
:101A400080E881AF80E686A70C5F1F4F03C080E56A
:101A5000F30186A7B801685D7F4FC30146E02E8978
:101A60003F890E948C0DEE2029F0F30112A613A6E7
:101A700014A615A6F30157A644A225A232A24981B5
:101A800043A385E080AB8AEB81AB14AA15AA12AA06
:101A900013AA065E1F4F980140E050E0C3014A962A
:101AA0000E5F1F4FB8010E94F30DF30192AB83ABA1
:101AB000065E1F4FC301B8010E942F050F90CF9102
:101AC000DF911F910F91FF90EF90DF90CF90BF902B
:101AD000AF909F908F907F906F905F904F903F90CE
:101AE0002F900895FC0184858830A1F48585882392
:101AF00089F4DF01E5ECF0E05E969C915E978081D1
:101B0000981741F41196319680E0E93CF807A1F767
:101B100081E0089580E008950F931F93CF93DF93A2
:101B2000EC018C01025F1F4F85E48E871F86788B46
:101B3000698B809162008A8B809161008B8B809190
:101B40006100909162000196909362008093610021
:101B50001C8A1D8A80E88E8B4F8BDE0140E050E0AE
:101B6000F901E40FF51F80815E968C935E97FA0170
:101B7000EB53FF4F80815A968C935A974F5F5F4F7C
:101B800011964430510561F7188E198EC80164E131
:101B900070E020E030E040E050E00E94F30D988FCC
:101BA000898FDF91CF911F910F910895CF93DF938C
:101BB000EC01DC0120E030E0FA01E20FF31F80814C
:101BC0008C93F901E554FF4F808116968C931697FC
:101BD0002F5F3F4F11962630310571F77C876D8757
:101BE000DF91CF910895EF92FF920F931F93CF93C0
:101BF000DF937C018B01EC010FC0F881E0E089816B
:101C000090E08E2B9F2BA0E0B0E0280F391F4A1FD9
:101C10005B1F2296625070406230710570F7F801C8
:101C2000EE7FEE0DFF1D00FF0DC0908180E0AA2722
:101C300097FDA095BA2F02C040705070280F391F31
:101C40004A1F5B1FCA01AA27BB270097A105B10540
:101C500099F720953095C901DF91CF911F910F9190
:101C6000FF90EF900895CF93DF93EC019C012E5DE0
:101C70003F4F8AA1883039F4FE01BA9681E48193FE
:101C80008F5F8136E1F71CA21DA2C90168E270E0F6
:101C900020E030E040E050E00E94F30D9CA38DA3D3
:101CA000DF91CF9108950F931F93CF93DF93EC01B2
:101CB0009B018A018F898130F9F48AA18830E1F48F
:101CC000CE0160E078E0A9010E94D60D788960E03D
:101CD000898990E0682B792BCE0141E098010E9420
:101CE0008C0D1AA2CE010E94330ECE016AE470E080
:101CF0000E942F0581E001C080E0DF91CF911F910C
:101D00000F910895EF92FF920F931F938C019B0107
:101D10007A0160E078E0A9010E94D60DC8016CE369
:101D200070E041E097010E948C0D88E0F80182A3E9
:101D300013A28091630086A317A28091640080A7FC
:101D400011A6809163008F5F80936300809164008F
:101D50008F5F80936400C8010E94330EC8016AE45B
:101D600070E00E942F051F910F91FF90EF90089552
:101D70000F931F93CF93DF93EC018A010E945E0CB7
:101D80008823E9F0CE0169EC70E0A8010E94820E80
:101D900010E08AE090E00E94720FCE016CED75E0D9
:101DA0000E948205892B41F08F89813029F48AA114
:101DB000882311F481E004C01F5F1A3051F780E0DE
:101DC000DF91CF911F910F910895FB01465D5F4F09
:101DD000DC01A40FB51F4A52504004C08D933196C8
:101DE0004F5F5F4F80818823C9F7CA010895465D20
:101DF0005F4FDC01A40FB51F4A52504003C08D93C2
:101E00004F5F5F4FFB016F5F7F4F84918823B9F76E
:101E1000CA0108950F931F938C018BE0F80182A3F0
:101E200088EB83A374A365A356A347A310A611A6AA
:101E3000BA016F5E7F4F9B0140E050E0C8014A96B7
:101E4000695070400E94F30DF80190A781A71F917F
:101E50000F910895EF92FF920F931F93CF93DF930B
:101E60008C019B017A01FC018789813199F584A15C
:101E70008B3081F585A1883B69F5D8019A96C0E041
:101E8000D0E002C08D932196FE01E85FF64F849169
:101E90008823C1F7C80160E078E0A9010E94D60D4F
:101EA0006C96C801BE0141E197010E948C0DF801BA
:101EB00072A160E083A190E0682B792B6497C80140
:101EC000AE010E940A0FA296C801BE010E942F0512
:101ED00081E001C080E0DF91CF911F910F91FF90D1
:101EE000EF90089540E050E009C020E030E02F5F1F
:101EF0003F4F26333105D9F74F5F5F4F48175907DA
:101F0000A4F3089540E050E009C020E030E02F5FE6
:101F10003F4F2A303105D9F74F5F5F4F48175907B8
:101F2000A4F3089583B7856083BF89B7816089BFB3
:101F300012BE1092D0001092CF00A09A789408950B
:101F40001F920F920FB60F9211248F938091D000A1
:101F50008F5F8093D0008091D000803181F4109207
:101F6000D0008091CF00882329F4A89A81E0809343
:101F7000CF0005C0813019F4A8981092CF008F913E
:101F80000F900FBE0F901F90189588E18AB980B509
:101F9000866880BD8DE489B910BC08955D9BFECF35
:101FA0008CB908955D9BFECF509890FD509A8CB9E6
:101FB00008955F9BFECF8CB108955F9BFECF8BB1E0
:101FC0002AB13CB18C7119F02FEF3FEF08C0269574
:101FD000922F917080E0232F30E0282B392BC901FC
:101FE000089501C08CB15F99FDCF0895FC0104C034
:101FF0005D9BFECF31968CB980818823C9F7089507
:10200000EF92FF920F931F938C017B0185E690E086
:102010000E94F60F80E197E20E94720F80E790E045
:102020000E94F60FC8010E94F60F8AE890E00E9415
:10203000F60FC7010E94F60F8CE890E00E94F60FA1
:102040001F910F91FF90EF900895EF92FF920F93E1
:102050001F938C017B0185E990E00E94F60FC80177
:102060000E94F60F8FE990E00E94F60F80E797E15B
:102070000E94720FC7010E94F60F82EA90E00E9450
:10208000F60F1F910F91FF90EF90089584EA90E072
:102090000E94F60F84E190E00E94720F0895A0E084
:1020A000B0E0E5E5F0E10C9475107C01EB018A01EC
:1020B000690109C0CE012196F6010995F7018193C6
:1020C0007F010150104001151105A1F7CDB7DEB712
:1020D000E8E00C9491102F923F924F925F926F9292
:1020E0007F928F929F92AF92BF92CF92DF92EF92A8
:1020F000FF920F931F93CF93DF93CDB7DEB7CA1B29
:10210000DB0B0FB6F894DEBF0FBECDBF09942A8853
:10211000398848885F846E847D848C849B84AA84FB
:10212000B984C884DF80EE80FD800C811B81AA8188
:10213000B981CE0FD11D0FB6F894DEBF0FBECDBF53
:08214000ED010895F894FFCFB2
:102148000A0100010141542B434D47463D300D0023
:1021580041542B435553443D312C222A3432322AE0
:1021680032333435363738312A002A0030302322CA
:102178002C31350D0041542B434D47533D2200224D
:102188000D001A0041542B434D47463D310D0000C8
:00000001FF
